:0600000002006B020B255B
:03000B00020DAA39
:03001300020B7865
:01001B0032B2
:03002300020A8D41
:03002B00020F8A37
:01003300329A
:03003B00020BCBEA
:03004300020A4E60
:01004B003282
:03005300020AD9C5
:01005B003272
:03006300020F8801
:03006600020C1F6A
:02006900E4733E
:0D006B0075812D12113CE5826003020066D4
:10007800791CE94400601B7A019013CE78E375A0DF
:1000880000E493F2A308B8000205A0D9F4DAF275E7
:02009800A0FFC7
:06009A00E478FFF6D8FD3A
:1000A0007800E84400600A799475A000E4F309D868
:1000B000FC784FE84400600C7901900094E4F0A3D0
:0400C000D8FCD9FA95
:0A00C40090009674FFF0900097F092
:0E00CE007808E4F608F608F608F6780C7600D6
:0200DC00C2025E
:0200DE00C2035B
:0300E000020066B5
:1000E400E582900094F0E0FF03540124FF9281EF35
:1000F400540124FF9280D2842084FD7E007F007D01
:1001040000BD2000501AD2842084FDAB9F7C008E59
:10011400018F02EB29F9EC3AFA89068A070D80E18E
:10012400EFC403CEC40354076ECE5407CE6ECE8EF6
:100134008222E582900095F0E0FF7E00C3EE9F509E
:100144003490009F7401F075821EC007C006120D22
:1001540035900064E4F5F0120E6790009FE4F075AA
:10016400821E120D35900064E4F5F0120E67D0067D
:10017400D0070E80C722759A0990009E7401F0750D
:10018400821E120C2E90009FE4F075821E120D3513
:1001940075E20075D1809001F4E4F5F0120E671257
:1001A40002327E007F0090009BE070258E048F0554
:1001B400C3EC9488ED94135018900001E4F5F0C05A
:1001C40007C006120E67D006D0070EBE00D80F80F7
:1001D400D590009BE06006758203020136758201AA
:1001E4000201367582001200E4AF82758201C007F5
:1001F4001200E4AE82D007900096E0FDEFB5050B47
:10020400900097E0FDEEB50502801A900096EFF09D
:10021400900097EEF09000E6EFF0900097E09000E9
:0E022400E7F0120259900032E4F5F0020E6786
:100232001209DC120A33120A2275DD0075D3007529
:10024200D5002275D30074FC55D24402F5D2900039
:10025200E5E4F022A2DE229000E5E060047582006F
:10026200227F00BF080050278F057E0074402DFDBD
:10027200E43EFEED240AFDEE3400FEEF24E6F582B4
:10028200E43400F583E0FC8D828E83F00F80D47518
:10029200D3089000E57401F053D2FC75820122AFBD
:1002A20082BF880040088F06EE2478FE8042BF801D
:1002B2000040239000E6E0FD8F04EC2480F5F00579
:1002C200F07401800225E0D5F0FBFC42059000E6C7
:1002D200EDF07E00801AEF90122D93FE7003F582EE
:1002E20022EE30E70B9000E6E04402FFF053067F77
:1002F2009000E8E0FFB50602805C9000E9E0FFB5FF
:10030200060280529000EAE0FFB5060280489000A3
:10031200EBE0FFB50602803E9000ECE0FFB506027E
:1003220080349000EDE0FFB50602802A7F027D0254
:10033200ED24E6FBE43400FC8B828C83E070088BB6
:10034200828C83EEF080080D8D07BD080040E1BF6E
:1003520008047582002212025975820122AF82BFFF
:10036200880040088F06EE2478FE8043BF8000405C
:10037200249000E6E0FD8F04EC2480F5F005F07493
:1003820001800225E0D5F0FBF4FC52059000E6ED79
:10039200F07E00801AEF90122D93FE7003F58222F8
:1003A200EE30E70B9000E6E054FDFFF053067F7F4E
:1003B20002EE6016EF24E6FCE43400FD8C828D83AD
:1003C200E0B506068C828D83E4F00FBF080040E1A1
:1003D200120259758201227F00BF0800500FEF24DC
:1003E200E6F582E43400F583E4F00F80EC02025972
:1003F200AF82C0071202A1AE82D0078F82C006125E
:10040200035FD0068E8222AFF0AE83E58290009821
:10041200F0EEA3F0EFA3F0900098E0FDA3E0FEA3BE
:10042200E0FF8D828E838FF0121004FCA3AD82AEAA
:1004320083900098EDF0EEA3F0EFA3F0ECFB6013D5
:100442008B82C007C006C0051203F2D005D006D0C9
:100452000780CF900098EDF0EEA3F0EFA3F022908A
:0604620000F0E0F582222B
:10046800AFDBBF08028003020863900007E0FE7F4D
:1004780000900006E0FD7C004FF510EC4EF5117F72
:1004880000900001E0F5129000EEE4F0900000E02A
:10049800FE54606067900000E0FE5306607D00BE79
:1004A8002005BD0002800BBE404DBD004A7FFF0203
:1004B80008657401B512030208657403B512028059
:1004C800177409B51203020865740AB51203020805
:1004D80065740BB5121C800E9000EFE0FE900000D2
:1004E800F07F01020865900002E0FE9000EFF00244
:1004F80008657FFF0208657FFF020865E51224F49E
:10050800500302085FE512240B83F582E5122410DC
:1005180083F583E473416F5F2F5F39355F46636509
:100528006508060807080605080606080890000377
:10053800E0FEBE01028011BE02028016BE030280E8
:100548001BBE2202806380797513AD7514127F1269
:1005580080717513BF7514127F228067900002E0C6
:1005680070087513F67514128034900002E0FEBE10
:1005780001087513207514138024900002E0FEBE54
:1005880002087513027514138014900002E0FEBE71
:1005980003087513FA75141280047FFF80258513EC
:1005A80082851483E493FF801A900002E0700E7530
:1005B80013E17514129012D8E493FF80067FFF8030
:1005C800027FFFBFFF030208658F057E00C3ED951C
:1005D80010EE951150048D108E11AD10AE11C3EDB3
:1005E8009408EE9400920040067B087C008004ABDF
:1005F80010AC118B077C00C3EC9F50198C027B0058
:10060800EC2513F582E43514F583E493F98A828B9B
:1006180083F00C80E28F037C00EDC39BFDEE9CFE13
:100628008D108E11EF2513F513E43514F514020817
:1006380065900002E0FE8E107511000208659000BA
:100648009BE0900000F0AD10AE11C3ED9401EE9464
:100658000050030208657F01020865900002E0FE71
:1006680090009BF0020865900000E0541F702F90E6
:100678000003E0FD7E00900002E0FC7B004206EBF8
:100688004205BE0114BD00119012C6E493FE30E588
:10069800030208657FFF0208657FFF020865900076
:1006A80000E0FE53061F7D00BE0277BD0074900077
:1006B80004E0FEBE0102805FBE02028049BE030262
:1006C8008033BE0402801DBE81028040BE8202804B
:1006D8002ABE83028014BE844474BC55DE4402F5ED
:1006E800DE02086553DE7302086574BC55D6440201
:1006F800F5D602086553D67302086574BC55D44410
:1007080002F5D402086553D47302086574BC55D247
:100718004402F5D202086553D2730208657FFF02CE
:1007280008657FFF020865900000E0541F702F9055
:100738000003E0FD7E00900002E0FC7B004206EB37
:100748004205BE0114BD00119012C6E493FE30E5C7
:10075800030208657FFF0208657FFF0208659000B5
:1007680000E0FE53061F7D00BE0205BD00028003A7
:1007780002083D900003E0FD7E00900002E0FC7B53
:10078800004206EB4205EE4D600302083990000571
:10079800E0FD7E00900004E0FC7B004206EB420591
:1007A800BE0106BD000302082DBE0205BD00028081
:1007B80060BE0305BD00028044BE0405BD00028082
:1007C80028BE8105BD00028052BE8205BD000280A0
:1007D80036BE8305BD0002801ABE8451BD004E742A
:1007E800BF55DE4403F5DE8074747F55DE440CF596
:1007F800DE806A74BF55D64403F5D68060747F5591
:10080800D6440CF5D6805674BF55D44403F5D4802D
:100818004C747F55D4440CF5D4804274BF55D244EF
:1008280003F5D28038747F55D2440CF5D27FFF800F
:100838002C7FFF80287FFF8024900000E4F0900048
:1008480001F0AD10AE11C3ED9402EE940040047FA8
:1008580002800AAF1080067FFF80027FFFBFFF077C
:100868007512FF75DCCF22EF24F740068FDD75DCAB
:10087800C02275DD0075DCC0227405B51202805DEA
:100888007406B51266AE10AF11C3EE9408EF94006B
:10089800920140067C087D008004AC10AD117D00FB
:1008A800C3ED9C50198D027B00ED2513F582E435CC
:1008B80014F583E493F98A828B83F00D80E28C032C
:1008C8007D00EEC39BFEEF9DFF8E108F11EC25136C
:1008D800F513E43514F5148CDD63DC4022E5E354AC
:1008E80080FFE5104FF5E375DC022275DD0075DC4D
:1008F80002227409B51209900000E0FF9000F0F0A0
:1009080075DD0063DC802220D9030209B4E5D954DF
:100918000FFFADD95305307E00BD0005BE00028033
:100928001BBD1005BE00028035BD2005BE0002803B
:1009380042BD3005BE000280590209B2EF24FB50C7
:10094800030209B2EF2F900952738008800B805A76
:10095800805880561208FA8051120256804CEF24B3
:10096800FB4047EF2F90097173803F803D803B80AB
:10097800398037EF24FB4032EF2F900986738008C7
:10098800800B802680248022120881801D12024557
:100998008018EF24FB4013EF2F9009A5738008807F
:1009A80009800780058003120468C2D930D81875F9
:1009B800DC0275D21275E300C2DAC2D9C2D890003F
:1009C8009BE4F09000E5F010DA0122E5DA20E2037A
:1009D80075D8FF2275E20053E27F43E22975E300F0
:1009E80053E2BF53D1FB75D18090009CE4F0A3F093
:1009F80090009CE0FEA3E0FFC3EE9460EF94EA5001
:100A08001590009CE0FEA3E0FF90009C74012EF07E
:100A1800E43FA3F080DA43D1012243E10443E10239
:100A280043E10143D81FD2EAD2AF227E007F008E75
:100A3800EC8FED7E0A7F008EEE8FEF75D21275EA8D
:050A4800C075DC022274
:100A4E00C021C0E0C0F0C082C083C007C006C00590
:100A5E00C004C003C002C001C000C0D075D00012D7
:100A6E00090FD0D0D000D001D002D003D004D005D1
:100A7E00D006D007D083D082D0F0D0E0D02132C0C3
:100A8E0021C0E0C0F0C082C083C007C006C005C050
:100A9E0004C003C002C001C000C0D075D0003098A1
:100AAE0005121020C298309905121060C299D0D04C
:100ABE00D000D001D002D003D004D005D006D0078C
:100ACE00D083D082D0F0D0E0D02132C021C0E0C09F
:100ADE00F0C082C083C007C006C005C004C003C0FA
:100AEE0002C001C000C0D075D00030C0051210AEDB
:100AFE00C2C030C1051210EEC2C1D0D0D000D0019C
:100B0E00D002D003D004D005D006D007D083D08237
:100B1E00D0F0D0E0D02132C021C0E0C0F0C082C001
:100B2E0083C007C006C005C004C003C002C001C018
:100B3E0000C0D075D0009000F3E0FEA3E0FFC00728
:100B4E00C0068E828F83120069D006D007D0D0D017
:100B5E0000D001D002D003D004D005D006D007D0EB
:100B6E0083D082D0F0D0E0D02132C021C0E0C0F0DE
:100B7E00C082C083C007C006C005C004C003C00247
:100B8E00C001C000C0D075D0009000F5E0FEA3E01B
:100B9E00FFC007C0068E828F83120069D006D00771
:100BAE00D0D0D000D001D002D003D004D005D006D2
:100BBE00D007D083D082D0F0D0E0D02132C021C077
:100BCE00E0C0F0C082C083C007C006C005C004C02C
:100BDE0003C002C001C000C0D075D0009000F1E08B
:100BEE00FEA3E04E600E9000F1E0F8A3E0F58388DE
:100BFE0082120069D0D0D000D001D002D003D00430
:100C0E00D005D006D007D083D082D0F0D0E0D0214E
:100C1E0032120F5312017A1201E780FB7582002205
:100C2E00E582FF90137E93FEEF90135693FF7001B3
:100C3E002290009EE0FD701BBF0209EEF4FC529262
:100C4E00EC529322BF0402800122EEF4FC5296EC89
:100C5E00529722BD0214BF0207EE4292EE42932239
:100C6E00BF0439EE4296EE429722BD0116BF02082E
:100C7E00EEF45292EE429322BF0421EEF45296EE1F
:100C8E00429722BD0316BF0208EE4292EEF4529333
:100C9E0022BF0408EE4296EEF4FE529722AF82BFB8
:100CAE000102800FBF02028013BF03028017BF0430
:100CBE0025801BE5C620E21E539DFB22E5C620E3E0
:100CCE0015539DF722E5C630E20C539DFB22E5C677
:100CDE0030E303539DF722E582FF90132E93FEEF30
:100CEE0090137E93FDEF90135693FF7003F58222BF
:100CFE00EE600D8E82C007C005120CABD005D0077A
:100D0E007E00BF0202800ABF03028009BF040C806E
:100D1E0008AE908006AEA08002AEB0ED5E600475A7
:100D2E0082012275820022E582FF90132E93FEEF40
:100D3E0090137E93FDEF90135693FFEE600D8E820F
:100D4E00C007C005120CABD005D007A2AFE433FE2E
:100D5E00C2AFBF0202800ABF03028017BF043680F3
:100D6E002490009FE07007EDF4FF52908027ED4233
:100D7E0090802290009FE07007EDF4FF52A0801546
:100D8E00ED42A0801090009FE07007EDF4FF52B08E
:0B0D9E008003ED42B0EE6002D2AF22F5
:100DAA00C0D075D00808B8000D09B900090ABA0000
:100DBA00050BBB00010CD0D032A2AFC2AFA808A964
:100DCA0009AA0AAB0BAC8A8588F092AF30F5127487
:100DDA00012C600D08B8000909B900050ABA00011A
:100DEA000BC3EC9406FCECC313FC75F07DE8A4F885
:100DFA00ADF075F07DE9A42DF9E435F0FD75F07DCF
:100E0A00EAA42DFAE435F0FD75F07DEBA42DFB7D07
:100E1A0000EC28F582E93DF583EA3DF5F0EB3D2249
:100E2A00A2AFC2AFA808A909AA0AAB0BAC0C92AF31
:100E3A0075F020E8A4A8F075F020E9A428F582A8A6
:100E4A00F075F020EAA428F583A8F075F020EBA449
:100E5A0028F9A8F075F020ECA42889F022858222CE
:100E6A0085832385F024F525120DC3858226858383
:100E7A002785F028F529E5224523452445257001D3
:100E8A0022A822A923AA24AB2585262A85272B85D1
:100E9A00282C85292DE8494A4B60DBC003C002C0D3
:100EAA0001C000120DC3AC82AD83AEF0FFD000D0FA
:100EBA0001D002D003ECC3952AFCED952BFDEE95EB
:100ECA002CFEEF952DFFC3EC94E8ED9403EE94000D
:100EDA00EF940040A118B8FF0919B9FF051ABAFF23
:100EEA00011B882289238A248B2574E8252AF52A5E
:100EFA007403352BF52BE4352CF52CE4352DF52D23
:100F0A00852A26852B27852C28852D298087AE8240
:100F1A00AF83C374019EE49F40022200C374029E01
:100F2A00FE74009FFF00BE0005BF00020022000001
:100F3A000000000000000000000000000000000E99
:100F4A00BE00EB0FBF00ED002275A15575A1AA7472
:100F5A00F855B94406F5B975A100901388120F180F
:100F6A00759E5D759D0074F055894402F58953C9D3
:0D0F7A00EF758C06C28DD2A9D28CD2AF22A9
:010F88003236
:010F8A003234
:100F8C0022AF82BF0200503EEF75F002A424F3FDA5
:100F9C00740035F0FE9000A0E0FBA3E0FC8D828E87
:100FAC0083EBF0ECA3F0BF00028005BF0118800BAF
:100FBC009000A2E024FF9288D2A8229000A2E0FF29
:100FCC0024FF928AD2AA22AF82BF02005028BF000F
:100FDC00028005BF01088004C2A88002C2AAEF7576
:100FEC00F002A424F3FE740035F0FF8E828F83741C
:070FFC008CF0740FA3F0223A
:1010040020F71430F6148883A88220F507E6A88315
:0C10140075830022E280F7E49322E022C2
:101020009000F7E0FF7E000FBF00010E7410C0E0DB
:10103000E4C0E08F828E83121140AE82158115814B
:101040009000F8E0FFEEB50701229000F7E024A33E
:10105000F582E43400F583E599F09000F7EEF02294
:1010600030024A9000F9E0FF9000FAE0FEEFB5068A
:1010700005A202C202229000FAE024B3F582E43411
:1010800000F583E0F5999000FAE0FF7E000FBF00C5
:10109000010E7410C0E0E4C0E08F828E8312114014
:0E10A000AE82AF83158115819000FAEEF0222A
:1010AE009000FBE0FF7E000FBF00010E7410C0E049
:1010BE00E4C0E08F828E83121140AE8215811581BD
:1010CE009000FCE0FFEEB50701229000FBE024C388
:1010DE00F582E43400F583E5C1F09000FBEEF022DA
:1010EE0030034A9000FDE0FF9000FEE0FEEFB506F3
:1010FE0005A203C203229000FEE024D3F582E4345D
:10110E0000F583E0F5C19000FEE0FF7E000FBF000A
:10111E00010E7410C0E0E4C0E08F828E8312114085
:0E112E00AE82AF83158115819000FEEEF02297
:10113C0075820022C015858115AE82E583FF33E4EC
:10114C0033FD6009C3E49EFBE49FFC80048E038F97
:10115C0004E51524FCF808E630E70FE51524FCF847
:10116C00C3E496FE08E496FF800AE51524FCF88695
:10117C0006088607C005C006C0078B828C83121137
:10118C00AEAE82AF8315811581D005ED600DC3E441
:10119C009EFCE49FFD8C828D8380048E828F83D095
:1011AC001522C015858115AE82AF837D007C00E5CC
:1011BC001524FCF808E6235401FB702FE51524FCDC
:1011CC00F8E626F608E633F6E51524FCF8C3EE96A9
:1011DC00EF08965011E51524FCF808E618C313C661
:1011EC0013C608F680050C8C0580C4E51524FCF8A4
:1011FC00C3EE96EF0896400DE51524FCF8EEC39669
:10120C00FEEF0896FFE51524FCF808E618C313C694
:10121C0013C608F68D041DEC70D18E828F83D01509
:01122C00229F
:10122D0000000000000000002A2B28000000000034
:10123D0000000000000000000000000000000000A1
:10124D002C9EB4A0A1A2A434A6A7A5AE362D3738E6
:10125D00271E1F20212223242526B333B62EB7B8EF
:10126D009F8485868788898A8B8C8D8E8F909192AD
:10127D00939495969798999A9B9C9D2F3130A3ADF9
:10128D00350405060708090A0B0C0D0E0F10111277
:10129D00131415161718191A1B1C1DAFB1B0B50074
:1012AD00120110010000000809125DC500010102C4
:1012BD00030109022200010100803209040000012E
:1012CD00030000000921100100012215000705810E
:1012DD000308000A0600FF0901A101150026FF0001
:1012ED007508950809028102C0040309040803303A
:1012FD0000300031001E0350004F0054002D0043FC
:10130D00006F006E00740072006F006C006C006561
:10131D000072000E0344006500710069006E0067E5
:01132D0000BF
:10132E0000000000000000000000000000000001AE
:10133E000000000000000000000000000000030498
:10134E000000020000000000010101010101010185
:10135E000000020202020202020200000303030363
:10136E000303030300000404040404040404000043
:10137E000102040810204080000001020408102021
:10138E00408000000102040810204080000001028D
:10139E000408102040800000FFFFFFFFFFFFFFFF4B
:1013AE00FFFFFF00FFFF0102FFFFFFFFFFFFFFFF39
:1013BE00FFFFFFFFFFFFFFFF03FFFFFFFFFFFFFF2B
:0213CE001F0CF2
:0913D00000000000000000000014
:0313D90000010010
:0213DC0000000F
:0413DE008C0F8C0FD5
:0413E2000000000007
:0413E6000000000003
:00000001FF
