:0600000002006B020B4B35
:03000B00020DD013
:03001300020B9E3F
:01001B0032B2
:03002300020AB31B
:03002B00020FB011
:01003300329A
:03003B00020BF1C4
:03004300020A743A
:01004B003282
:03005300020AFF9F
:01005B003272
:03006300020FAEDB
:03006600020C4544
:02006900E4733E
:0D006B0075812D121162E5826003020066AE
:10007800791CE94400601B7A019013F478E375A0B9
:1000880000E493F2A308B8000205A0D9F4DAF275E7
:02009800A0FFC7
:06009A00E478FFF6D8FD3A
:1000A0007800E84400600A799475A000E4F309D868
:1000B000FC784FE84400600C7901900094E4F0A3D0
:0400C000D8FCD9FA95
:0A00C40090009674FFF0900097F092
:0E00CE007808E4F608F608F608F6780C7600D6
:0200DC00C2025E
:0200DE00C2035B
:0300E000020066B5
:1000E400E582900094F0E0FF03540124FF9281EF35
:1000F400540124FF9280D2842084FD859F8222E5CE
:1001040082900095F0E0FF7E00C3EE9F5034900093
:100114009F7401F075821EC007C006120D5B90002B
:1001240064E4F5F0120E8D90009FE4F075821E12C7
:100134000D5B900064E4F5F0120E8DD006D0070E2E
:1001440080C722759A0990009E7401F075821E1270
:100154000C5490009FE4F075821E120D5B75E20052
:1001640075D1809001F4E4F5F0120E8D1202587EE0
:10017400007F0090009BE070258E048F05C3EC94F3
:1001840088ED94135018900001E4F5F0C007C00600
:10019400120E8DD006D0070EBE00D80F80D5900069
:1001A4009BE060067582030201037582010201036C
:1001B4007582001200E4AF82758201C0071200E468
:1001C400AE82D007900096E0FC7D0074012CFAE426
:1001D4003DFB8F007900C3EA98EB648089F063F0FB
:1001E4008095F0401408B8000109C3E89CE96480D4
:1001F4008DF063F08095F05005900096EFF090003C
:1002040097E0FD7F0074012DFBE43FFC8E017A0032
:10021400C3EB99EC64808AF063F08095F040140994
:10022400B900010AC3E99DEA64808FF063F0809508
:10023400F05005900097EEF0900096E09000E6F004
:10024400900097E09000E7F012027F900032E4F50E
:04025400F0020E8D19
:10025800120A02120A59120A4875DD0075D3007590
:10026800D5002275D30074FC55D24402F5D2900013
:10027800E5E4F022A2DE229000E5E0600475820049
:10028800227F00BF080050278F057E0074402DFD97
:10029800E43EFEED240AFDEE3400FEEF24E6F5828E
:1002A800E43400F583E0FC8D828E83F00F80D475F2
:1002B800D3089000E57401F053D2FC75820122AF97
:1002C80082BF880040088F06EE2478FE8042BF80F7
:1002D8000040239000E6E0FD8F04EC2480F5F00553
:1002E800F07401800225E0D5F0FBFC42059000E6A1
:1002F800EDF07E00801AEF90125393FE7003F582A2
:1003080022EE30E70B9000E6E04402FFF053067F50
:100318009000E8E0FFB50602805C9000E9E0FFB5D8
:10032800060280529000EAE0FFB50602804890007D
:10033800EBE0FFB50602803E9000ECE0FFB5060258
:1003480080349000EDE0FFB50602802A7F027D022E
:10035800ED24E6FBE43400FC8B828C83E070088B90
:10036800828C83EEF080080D8D07BD080040E1BF48
:1003780008047582002212027F75820122AF82BFB3
:10038800880040088F06EE2478FE8043BF80004036
:10039800249000E6E0FD8F04EC2480F5F005F0746D
:1003A80001800225E0D5F0FBF4FC52059000E6ED53
:1003B800F07E00801AEF90125393FE7003F58222AC
:1003C800EE30E70B9000E6E054FDFFF053067F7F28
:1003D80002EE6016EF24E6FCE43400FD8C828D8387
:1003E800E0B506068C828D83E4F00FBF080040E17B
:1003F80012027F758201227F00BF0800500FEF2490
:10040800E6F582E43400F583E4F00F80EC02027F25
:10041800AF82C0071202C7AE82D0078F82C0061211
:100428000385D0068E8222AFF0AE83E582900098D5
:10043800F0EEA3F0EFA3F0900098E0FDA3E0FEA398
:10044800E0FF8D828E838FF012102AFCA3AD82AE5E
:1004580083900098EDF0EEA3F0EFA3F0ECFB6013AF
:100468008B82C007C006C005120418D005D006D07C
:100478000780CF900098EDF0EEA3F0EFA3F0229064
:0604880000F0E0F5822205
:10048E00AFDBBF08028003020889900007E0FE7F01
:10049E0000900006E0FD7C004FF510EC4EF5117F4C
:1004AE0000900001E0F5129000EEE4F0900000E004
:1004BE00FE54606067900000E0FE5306607D00BE53
:1004CE002005BD0002800BBE404DBD004A7FFF02DD
:1004DE00088B7401B5120302088B7403B5120280E7
:1004EE00177409B5120302088B740AB512030208B9
:1004FE008B740BB5121C800E9000EFE0FE90000086
:10050E00F07F0102088B900002E0FE9000EFF002F7
:10051E00088B7FFF02088B7FFF02088BE51224F405
:10052E005003020885E512240B83F582E512241090
:10053E0083F583E47367958555855F5B856C898B41
:10054E008B0806080708060508060608089000032B
:10055E00E0FEBE01028011BE02028016BE030280C2
:10056E001BBE2202806380797513D37514127F121D
:10057E0080717513E57514127F228067900002E07A
:10058E00700875131C7514138034900002E0FEBEC3
:10059E0001087513467514138024900002E0FEBE08
:1005AE0002087513287514138014900002E0FEBE25
:1005BE00030875132075141380047FFF802585139F
:1005CE0082851483E493FF801A900002E0700E750A
:1005DE0013077514139012FEE493FF80067FFF80BD
:1005EE00027FFFBFFF0302088B8F057E00C3ED95D0
:1005FE0010EE951150048D108E11AD10AE11C3ED8D
:10060E009408EE9400920040067B087C008004ABB8
:10061E0010AC118B077C00C3EC9F50198C027B0031
:10062E00EC2513F582E43514F583E493F98A828B75
:10063E0083F00C80E28F037C00EDC39BFDEE9CFEED
:10064E008D108E11EF2513F513E43514F5140208F1
:10065E008B900002E0FE8E1075110002088B900048
:10066E009BE0900000F0AD10AE11C3ED9401EE943E
:10067E0000500302088B7F0102088B900002E0FEFF
:10068E0090009BF002088B900000E0541F702F909A
:10069E000003E0FD7E00900002E0FC7B004206EBD2
:1006AE004205BE0114BD00119012ECE493FE30E53C
:1006BE000302088B7FFF02088B7FFF02088B9000DE
:1006CE0000E0FE53061F7D00BE0277BD0074900051
:1006DE0004E0FEBE0102805FBE02028049BE03023C
:1006EE008033BE0402801DBE81028040BE82028025
:1006FE002ABE83028014BE844474BC55DE4402F5C7
:10070E00DE02088B53DE7302088B74BC55D644028E
:10071E00F5D602088B53D67302088B74BC55D4449D
:10072E0002F5D402088B53D47302088B74BC55D2D5
:10073E004402F5D202088B53D27302088B7FFF025C
:10074E00088B7FFF02088B900000E0541F702F90E3
:10075E000003E0FD7E00900002E0FC7B004206EB11
:10076E004205BE0114BD00119012ECE493FE30E57B
:10077E000302088B7FFF02088B7FFF02088B90001D
:10078E0000E0FE53061F7D00BE0205BD0002800381
:10079E00020863900003E0FD7E00900002E0FC7B07
:1007AE00004206EB4205EE4D600302085F90000525
:1007BE00E0FD7E00900004E0FC7B004206EB42056B
:1007CE00BE0106BD0003020853BE0205BD00028035
:1007DE0060BE0305BD00028044BE0405BD0002805C
:1007EE0028BE8105BD00028052BE8205BD0002807A
:1007FE0036BE8305BD0002801ABE8451BD004E7404
:10080E00BF55DE4403F5DE8074747F55DE440CF56F
:10081E00DE806A74BF55D64403F5D68060747F556A
:10082E00D6440CF5D6805674BF55D44403F5D48007
:10083E004C747F55D4440CF5D4804274BF55D244C9
:10084E0003F5D28038747F55D2440CF5D27FFF80E9
:10085E002C7FFF80287FFF8024900000E4F0900022
:10086E0001F0AD10AE11C3ED9402EE940040047F82
:10087E0002800AAF1080067FFF80027FFFBFFF0756
:10088E007512FF75DCCF22EF24F740068FDD75DC85
:10089E00C02275DD0075DCC0227405B51202805DC4
:1008AE007406B51266AE10AF11C3EE9408EF940045
:1008BE00920140067C087D008004AC10AD117D00D5
:1008CE00C3ED9C50198D027B00ED2513F582E435A6
:1008DE0014F583E493F98A828B83F00D80E28C0306
:1008EE007D00EEC39BFEEF9DFF8E108F11EC251346
:1008FE00F513E43514F5148CDD63DC4022E5E35486
:10090E0080FFE5104FF5E375DC022275DD0075DC26
:10091E0002227409B51209900000E0FF9000F0F079
:10092E0075DD0063DC802220D9030209DAE5D95493
:10093E000FFFADD95305307E00BD0005BE0002800D
:10094E001BBD1005BE00028035BD2005BE00028015
:10095E0042BD3005BE000280590209D8EF24FB507B
:10096E00030209D8EF2F900978738008800B805A04
:10097E0080588056120920805112027C804CEF2440
:10098E00FB4047EF2F90099773803F803D803B805F
:10099E00398037EF24FB4032EF2F9009AC7380087B
:1009AE00800B8026802480221208A7801D12026BE5
:1009BE008018EF24FB4013EF2F9009CB7380088033
:1009CE000980078005800312048EC2D930D81875AD
:1009DE00DC0275D21275E300C2DAC2D9C2D8900019
:1009EE009BE4F09000E5F010DA0122E5DA20E20354
:1009FE0075D8FF2275E20053E27F43E22975E300CA
:100A0E0053E2BF53D1FB75D18090009CE4F0A3F06C
:100A1E0090009CE0FEA3E0FFC3EE9460EF94EA50DA
:100A2E001590009CE0FEA3E0FF90009C74012EF058
:100A3E00E43FA3F080DA43D1012243E10443E10213
:100A4E0043E10143D81FD2EAD2AF227E007F008E4F
:100A5E00EC8FED7E0A7F008EEE8FEF75D21275EA67
:050A6E00C075DC02224E
:100A7400C021C0E0C0F0C082C083C007C006C0056A
:100A8400C004C003C002C001C000C0D075D00012B1
:100A94000935D0D0D000D001D002D003D004D00585
:100AA400D006D007D083D082D0F0D0E0D02132C09D
:100AB40021C0E0C0F0C082C083C007C006C005C02A
:100AC40004C003C002C001C000C0D075D00030987B
:100AD40005121046C298309905121086C299D0D0DA
:100AE400D000D001D002D003D004D005D006D00766
:100AF400D083D082D0F0D0E0D02132C021C0E0C079
:100B0400F0C082C083C007C006C005C004C003C0D3
:100B140002C001C000C0D075D00030C0051210D48E
:100B2400C2C030C105121114C2C1D0D0D000D0014E
:100B3400D002D003D004D005D006D007D083D08211
:100B4400D0F0D0E0D02132C021C0E0C0F0C082C0DB
:100B540083C007C006C005C004C003C002C001C0F2
:100B640000C0D075D0009000F3E0FEA3E0FFC00702
:100B7400C0068E828F83120069D006D007D0D0D0F1
:100B840000D001D002D003D004D005D006D007D0C5
:100B940083D082D0F0D0E0D02132C021C0E0C0F0B8
:100BA400C082C083C007C006C005C004C003C00221
:100BB400C001C000C0D075D0009000F5E0FEA3E0F5
:100BC400FFC007C0068E828F83120069D006D0074B
:100BD400D0D0D000D001D002D003D004D005D006AC
:100BE400D007D083D082D0F0D0E0D02132C021C051
:100BF400E0C0F0C082C083C007C006C005C004C006
:100C040003C002C001C000C0D075D0009000F1E064
:100C1400FEA3E04E600E9000F1E0F8A3E0F58388B7
:100C240082120069D0D0D000D001D002D003D00409
:100C3400D005D006D007D083D082D0F0D0E0D02128
:100C440032120F791201471201B480FB758200221F
:100C5400E582FF9013A493FEEF90137C93FF700141
:100C64002290009EE0FD701BBF0209EEF4FC52923C
:100C7400EC529322BF0402800122EEF4FC5296EC63
:100C8400529722BD0214BF0207EE4292EE42932213
:100C9400BF0439EE4296EE429722BD0116BF020808
:100CA400EEF45292EE429322BF0421EEF45296EEF9
:100CB400429722BD0316BF0208EE4292EEF452930D
:100CC40022BF0408EE4296EEF4FE529722AF82BF92
:100CD4000102800FBF02028013BF03028017BF040A
:100CE40025801BE5C620E21E539DFB22E5C620E3BA
:100CF40015539DF722E5C630E20C539DFB22E5C651
:100D040030E303539DF722E582FF90135493FEEFE3
:100D14009013A493FDEF90137C93FF7003F582224C
:100D2400EE600D8E82C007C005120CD1D005D0072D
:100D34007E00BF0202800ABF03028009BF040C8048
:100D440008AE908006AEA08002AEB0ED5E60047581
:100D540082012275820022E582FF90135493FEEFF4
:100D64009013A493FDEF90137C93FFEE600D8E829D
:100D7400C007C005120CD1D005D007A2AFE433FEE2
:100D8400C2AFBF0202800ABF03028017BF043680CD
:100D94002490009FE07007EDF4FF52908027ED420D
:100DA40090802290009FE07007EDF4FF52A0801520
:100DB400ED42A0801090009FE07007EDF4FF52B068
:0B0DC4008003ED42B0EE6002D2AF22CF
:100DD000C0D075D00808B8000D09B900090ABA00DA
:100DE000050BBB00010CD0D032A2AFC2AFA808A93E
:100DF00009AA0AAB0BAC8A8588F092AF30F5127461
:100E0000012C600D08B8000909B900050ABA0001F3
:100E10000BC3EC9406FCECC313FC75F07DE8A4F85E
:100E2000ADF075F07DE9A42DF9E435F0FD75F07DA8
:100E3000EAA42DFAE435F0FD75F07DEBA42DFB7DE1
:100E400000EC28F582E93DF583EA3DF5F0EB3D2223
:100E5000A2AFC2AFA808A909AA0AAB0BAC0C92AF0B
:100E600075F020E8A4A8F075F020E9A428F582A880
:100E7000F075F020EAA428F583A8F075F020EBA423
:100E800028F9A8F075F020ECA42889F022858222A8
:100E900085832385F024F525120DE9858226858337
:100EA0002785F028F529E5224523452445257001AD
:100EB00022A822A923AA24AB2585262A85272B85AB
:100EC000282C85292DE8494A4B60DBC003C002C0AD
:100ED00001C000120DE9AC82AD83AEF0FFD000D0AE
:100EE00001D002D003ECC3952AFCED952BFDEE95C5
:100EF0002CFEEF952DFFC3EC94E8ED9403EE9400E7
:100F0000EF940040A118B8FF0919B9FF051ABAFFFC
:100F1000011B882289238A248B2574E8252AF52A37
:100F20007403352BF52BE4352CF52CE4352DF52DFC
:100F3000852A26852B27852C28852D298087AE821A
:100F4000AF83C374019EE49F40022200C374029EDB
:100F5000FE74009FFF00BE0005BF000200220000DB
:100F60000000000000000000000000000000000E73
:100F7000BE00EB0FBF00ED002275A15575A1AA744C
:100F8000F855B94406F5B975A100901388120F3EC3
:100F9000759E5D759D0074F055894402F58953C9AD
:0D0FA000EF758C06C28DD2A9D28CD2AF2283
:010FAE003210
:010FB000320E
:100FB20022AF82BF0200503EEF75F002A424F3FD7F
:100FC200740035F0FE9000A0E0FBA3E0FC8D828E61
:100FD20083EBF0ECA3F0BF00028005BF0118800B89
:100FE2009000A2E024FF9288D2A8229000A2E0FF03
:100FF20024FF928AD2AA22AF82BF02005028BF00E9
:10100200028005BF01088004C2A88002C2AAEF754F
:10101200F002A424F3FE740035F0FF8E828F8374F5
:07102200B2F0740FA3F022ED
:10102A0020F71430F6148883A88220F507E6A883EF
:0C103A0075830022E280F7E49322E0229C
:101046009000F7E0FF7E000FBF00010E7410C0E0B5
:10105600E4C0E08F828E83121166AE8215811581FF
:101066009000F8E0FFEEB50701229000F7E024A318
:10107600F582E43400F583E599F09000F7EEF0226E
:1010860030024A9000F9E0FF9000FAE0FEEFB50664
:1010960005A202C202229000FAE024B3F582E434EB
:1010A60000F583E0F5999000FAE0FF7E000FBF009F
:1010B600010E7410C0E0E4C0E08F828E83121166C8
:0E10C600AE82AF83158115819000FAEEF02204
:1010D4009000FBE0FF7E000FBF00010E7410C0E023
:1010E400E4C0E08F828E83121166AE821581158171
:1010F4009000FCE0FFEEB50701229000FBE024C362
:10110400F582E43400F583E5C1F09000FBEEF022B3
:1011140030034A9000FDE0FF9000FEE0FEEFB506CC
:1011240005A203C203229000FEE024D3F582E43436
:1011340000F583E0F5C19000FEE0FF7E000FBF00E4
:10114400010E7410C0E0E4C0E08F828E8312116639
:0E115400AE82AF83158115819000FEEEF02271
:1011620075820022C015858115AE82E583FF33E4C6
:1011720033FD6009C3E49EFBE49FFC80048E038F71
:1011820004E51524FCF808E630E70FE51524FCF821
:10119200C3E496FE08E496FF800AE51524FCF8866F
:1011A20006088607C005C006C0078B828C83121111
:1011B200D4AE82AF8315811581D005ED600DC3E4F5
:1011C2009EFCE49FFD8C828D8380048E828F83D06F
:1011D2001522C015858115AE82AF837D007C00E5A6
:1011E2001524FCF808E6235401FB702FE51524FCB6
:1011F200F8E626F608E633F6E51524FCF8C3EE9683
:10120200EF08965011E51524FCF808E618C313C63A
:1012120013C608F680050C8C0580C4E51524FCF87D
:10122200C3EE96EF0896400DE51524FCF8EEC39642
:10123200FEEF0896FFE51524FCF808E618C313C66E
:1012420013C608F68D041DEC70D18E828F83D015E3
:011252002279
:1012530000000000000000002A2B2800000000000E
:10126300000000000000000000000000000000007B
:101273002C9EB4A0A1A2A434A6A7A5AE362D3738C0
:10128300271E1F20212223242526B333B62EB7B8C9
:101293009F8485868788898A8B8C8D8E8F90919287
:1012A300939495969798999A9B9C9D2F3130A3ADD3
:1012B300350405060708090A0B0C0D0E0F10111251
:1012C300131415161718191A1B1C1DAFB1B0B5004E
:1012D300120110010000000809125DC5000101029E
:1012E3000301090222000101008032090400000108
:1012F30003000000092110010001221500070581E8
:101303000308000A0600FF0901A101150026FF00DA
:101313007508950809028102C00403090408033013
:1013230000300031001E0350004F0054002D0043D5
:10133300006F006E00740072006F006C006C00653B
:101343000072000E0344006500710069006E0067BF
:011353000099
:101354000000000000000000000000000000000188
:101364000000000000000000000000000000030472
:10137400000002000000000001010101010101015F
:10138400000002020202020202020000030303033D
:10139400030303030000040404040404040400001D
:1013A40001020408102040800000010204081020FB
:1013B4004080000001020408102040800000010267
:1013C4000408102040800000FFFFFFFFFFFFFFFF25
:1013D400FFFFFF00FFFF0102FFFFFFFFFFFFFFFF13
:1013E400FFFFFFFFFFFFFFFF03FFFFFFFFFFFFFF05
:0213F400450CA6
:0913F600000000000000000000EE
:0313FF00000100EA
:021402000000E8
:04140400B20FB20F62
:0414080000000000E0
:04140C0000000000DC
:00000001FF
