:0600000002006B020BA3DD
:03000B00020E28BA
:03001300020BF6E7
:01001B0032B2
:03002300020B0BC2
:03002B00021008B8
:01003300329A
:03003B00020C496B
:03004300020ACCE2
:01004B003282
:03005300020B5746
:01005B003272
:0300630002100682
:03006600020C9DEC
:02006900E4733E
:0D006B0075812D1211BAE582600302006656
:10007800791CE94400601B7A0190144C78E575A05E
:1000880000E493F2A308B8000205A0D9F4DAF275E7
:02009800A0FFC7
:06009A00E478FFF6D8FD3A
:1000A0007800E84400600A799475A000E4F309D868
:1000B000FC7851E84400600C7901900094E4F0A3CE
:0400C000D8FCD9FA95
:1000C40090009674FFF0900097F0900098F09000E4
:0200D40099F0A1
:0E00D6007808E4F608F608F608F6780C7600CE
:0200E400C20256
:0200E600C20353
:0300E800020066AD
:1000EC00E582900094F0E0FF03540124FF9281EF2D
:1000FC00540124FF9280D2842084FD7E007F007DF9
:10010C0000BD0800501AD2842084FDAB9F7C008E69
:10011C00018F02EB29F9EC3AFA89068A070D80E186
:10012C00EFC423CEC423541F6ECE541FCE6ECE8E7E
:10013C008222E582900095F0E0FF7E00C3EE9F5096
:10014C00349000A17401F075821EC007C006120D18
:10015C00B3900064E4F5F0120EE59000A1E4F075A4
:10016C00821E120DB3900064E4F5F0120EE5D00679
:10017C00D0070E80C722759A099000A07401F07503
:10018C00821E120CAC9000A1E4F075821E120DB30D
:10019C0075E20075D1809001F4E4F5F0120EE512D1
:1001AC0002B07E007F0090009DE070258E048F05CC
:1001BC00C3EC9488ED94135018900001E4F5F0C052
:1001CC0007C006120EE5D006D0070EBE00D80F8071
:1001DC00D590009DE0600675820302013E75820198
:1001EC0002013E7582001200ECAF82758201C007DD
:1001FC001200ECAE82D0078F047D00900096E0FBDD
:10020C007A00ECC39BFCED9AFD8C028D03C3740148
:10021C009A74808BF063F08095F0400AEC94FFEDBB
:10022C006480947F5005900096EFF08E057F0090CF
:10023C000097E0FC7B00EDC39CFDEF9BFF8D038FD3
:10024C0004C374019B74808CF063F08095F0400AB9
:10025C00ED94FFEF6480947F5005900097EEF09042
:10026C000096E0FF900098E0FEEFB5061090009726
:10027C00E0FE900099E0FDEEB50502801D9000981F
:10028C00EFF0900097E0900099F09000E8EFF0907C
:10029C000099E09000E9F01202D7900032E4F5F0FA
:0302AC00020EE55A
:1002B000120A5A120AB1120AA075DD0075D3007530
:1002C000D5002275D30074FC55D24402F5D29000BB
:1002D000E7E4F022A2DE229000E7E06004758200ED
:1002E000227F00BF080050278F057E0074402DFD3F
:1002F000E43EFEED240AFDEE3400FEEF24E8F58234
:10030000E43400F583E0FC8D828E83F00F80D47599
:10031000D3089000E77401F053D2FC75820122AF3C
:1003200082BF880040088F06EE2478FE8042BF809E
:100330000040239000E8E0FD8F04EC2480F5F005F8
:10034000F07401800225E0D5F0FBFC42059000E846
:10035000EDF07E00801AEF9012AB93FE7003F582F1
:1003600022EE30E70B9000E8E04402FFF053067FF6
:100370009000EAE0FFB50602805C9000EBE0FFB57C
:10038000060280529000ECE0FFB506028048900023
:10039000EDE0FFB50602803E9000EEE0FFB50602FC
:1003A00080349000EFE0FFB50602802A7F027D02D4
:1003B000ED24E8FBE43400FC8B828C83E070088B36
:1003C000828C83EEF080080D8D07BD080040E1BFF0
:1003D0000804758200221202D775820122AF82BF03
:1003E000880040088F06EE2478FE8043BF800040DE
:1003F000249000E8E0FD8F04EC2480F5F005F07413
:1004000001800225E0D5F0FBF4FC52059000E8EDF8
:10041000F07E00801AEF9012AB93FE7003F58222FB
:10042000EE30E70B9000E8E054FDFFF053067F7FCD
:1004300002EE6016EF24E8FCE43400FD8C828D832C
:10044000E0B506068C828D83E4F00FBF080040E122
:100450001202D7758201227F00BF0800500FEF24DF
:10046000E8F582E43400F583E4F00F80EC0202D773
:10047000AF82C00712031FAE82D0078F82C0061260
:1004800003DDD0068E8222AFF0AE83E58290009A23
:10049000F0EEA3F0EFA3F090009AE0FDA3E0FEA33E
:1004A000E0FF8D828E838FF0121082FCA3AD82AEAE
:1004B0008390009AEDF0EEA3F0EFA3F0ECFB601355
:1004C0008B82C007C006C005120470D005D006D0CC
:1004D0000780CF90009AEDF0EEA3F0EFA3F022900A
:0604E00000F2E0F58222AB
:1004E600AFDBBF080280030208E1900007E0FE7F51
:1004F60000900006E0FD7C004FF510EC4EF5117FF4
:1005060000900001E0F5129000F0E4F0900000E0A9
:10051600FE54606067900000E0FE5306607D00BEFA
:100526002005BD0002800BBE404DBD004A7FFF0284
:1005360008E37401B512030208E37403B5120280DE
:10054600177409B512030208E3740AB51203020808
:10055600E3740BB5121C800E9000F1E0FE900000D3
:10056600F07F010208E3900002E0FE9000F1F00245
:1005760008E37FFF0208E37FFF0208E3E51224F4A5
:1005860050030208DDE512240B83F582E5122410E0
:1005960083F583E473BFEDDDADDDB7B3DDC4E1E321
:1005A600E30806080708060508060608089000037B
:1005B600E0FEBE01028011BE02028016BE0302806A
:1005C6001BBE22028063807975132B7514137F126C
:1005D600807175133D7514137F228067900002E0C9
:1005E60070087513747514138034900002E0FEBE13
:1005F600010875139E7514138024900002E0FEBE58
:1006060002087513807514138014900002E0FEBE74
:10061600030875137875141380047FFF80258513EE
:1006260082851483E493FF801A900002E0700E75B1
:10063600135F751413901356E493FF80067FFF80B3
:10064600027FFFBFFF030208E38F057E00C3ED951F
:1006560010EE951150048D108E11AD10AE11C3ED34
:100666009408EE9400920040067B087C008004AB60
:1006760010AC118B077C00C3EC9F50198C027B00D9
:10068600EC2513F582E43514F583E493F98A828B1D
:1006960083F00C80E28F037C00EDC39BFDEE9CFE95
:1006A6008D108E11EF2513F513E43514F514020899
:1006B600E3900002E0FE8E107511000208E3900040
:1006C6009DE0900000F0AD10AE11C3ED9401EE94E4
:1006D6000050030208E37F010208E3900002E0FEF7
:1006E60090009DF00208E3900000E0541F702F90E8
:1006F6000003E0FD7E00900002E0FC7B004206EB7A
:100706004205BE0114BD0011901344E493FE30E58A
:10071600030208E37FFF0208E37FFF0208E390007D
:1007260000E0FE53061F7D00BE0277BD00749000F8
:1007360004E0FEBE0102805FBE02028049BE0302E3
:100746008033BE0402801DBE81028040BE820280CC
:100756002ABE83028014BE844474BC55DE4402F56E
:10076600DE0208E353DE730208E374BC55D6440286
:10077600F5D60208E353D6730208E374BC55D44495
:1007860002F5D40208E353D4730208E374BC55D2CD
:100796004402F5D20208E353D2730208E37FFF0254
:1007A60008E37FFF0208E3900000E0541F702F90DB
:1007B6000003E0FD7E00900002E0FC7B004206EBB9
:1007C6004205BE0114BD0011901344E493FE30E5CA
:1007D600030208E37FFF0208E37FFF0208E39000BD
:1007E60000E0FE53061F7D00BE0205BD0002800329
:1007F6000208BB900003E0FD7E00900002E0FC7B57
:10080600004206EB4205EE4D60030208B790000574
:10081600E0FD7E00900004E0FC7B004206EB420512
:10082600BE0106BD00030208ABBE0205BD00028084
:1008360060BE0305BD00028044BE0405BD00028003
:1008460028BE8105BD00028052BE8205BD00028021
:1008560036BE8305BD0002801ABE8451BD004E74AB
:10086600BF55DE4403F5DE8074747F55DE440CF517
:10087600DE806A74BF55D64403F5D68060747F5512
:10088600D6440CF5D6805674BF55D44403F5D480AF
:100896004C747F55D4440CF5D4804274BF55D24471
:1008A60003F5D28038747F55D2440CF5D27FFF8091
:1008B6002C7FFF80287FFF8024900000E4F09000CA
:1008C60001F0AD10AE11C3ED9402EE940040047F2A
:1008D60002800AAF1080067FFF80027FFFBFFF07FE
:1008E6007512FF75DCCF22EF24F740068FDD75DC2D
:1008F600C02275DD0075DCC0227405B51202805D6C
:100906007406B51266AE10AF11C3EE9408EF9400EC
:10091600920140067C087D008004AC10AD117D007C
:10092600C3ED9C50198D027B00ED2513F582E4354D
:1009360014F583E493F98A828B83F00D80E28C03AD
:100946007D00EEC39BFEEF9DFF8E108F11EC2513ED
:10095600F513E43514F5148CDD63DC4022E5E3542D
:1009660080FFE5104FF5E375DC022275DD0075DCCE
:1009760002227409B51209900000E0FF9000F2F01F
:1009860075DD0063DC802220D903020A32E5D954E2
:100996000FFFADD95305307E00BD0005BE000280B5
:1009A6001BBD1005BE00028035BD2005BE000280BD
:1009B60042BD3005BE00028059020A30EF24FB50CA
:1009C60003020A30EF2F9009D0738008800B805AFB
:1009D6008058805612097880511202D4804CEF2438
:1009E600FB4047EF2F9009EF73803F803D803B80AF
:1009F600398037EF24FB4032EF2F900A04738008CA
:100A0600800B8026802480221208FF801D1202C3DC
:100A16008018EF24FB4013EF2F900A237380088081
:100A2600098007800580031204E6C2D930D81875FC
:100A3600DC0275D21275E300C2DAC2D9C2D89000C0
:100A46009DE4F09000E7F010DA0122E5DA20E203F7
:100A560075D8FF2275E20053E27F43E22975E30071
:100A660053E2BF53D1FB75D18090009EE4F0A3F012
:100A760090009EE0FEA3E0FFC3EE9460EF94EA5080
:100A86001590009EE0FEA3E0FF90009E74012EF0FC
:100A9600E43FA3F080DA43D1012243E10443E102BB
:100AA60043E10143D81FD2EAD2AF227E007F008EF7
:100AB600EC8FED7E0A7F008EEE8FEF75D21275EA0F
:050AC600C075DC0222F6
:100ACC00C021C0E0C0F0C082C083C007C006C00512
:100ADC00C004C003C002C001C000C0D075D0001259
:100AEC00098DD0D0D000D001D002D003D004D005D5
:100AFC00D006D007D083D082D0F0D0E0D02132C045
:100B0C0021C0E0C0F0C082C083C007C006C005C0D1
:100B1C0004C003C002C001C000C0D075D000309822
:100B2C000512109EC2983099051210DEC299D0D0D1
:100B3C00D000D001D002D003D004D005D006D0070D
:100B4C00D083D082D0F0D0E0D02132C021C0E0C020
:100B5C00F0C082C083C007C006C005C004C003C07B
:100B6C0002C001C000C0D075D00030C00512112CDD
:100B7C00C2C030C10512116CC2C1D0D0D000D0019E
:100B8C00D002D003D004D005D006D007D083D082B9
:100B9C00D0F0D0E0D02132C021C0E0C0F0C082C083
:100BAC0083C007C006C005C004C003C002C001C09A
:100BBC0000C0D075D0009000F5E0FEA3E0FFC007A8
:100BCC00C0068E828F83120069D006D007D0D0D099
:100BDC0000D001D002D003D004D005D006D007D06D
:100BEC0083D082D0F0D0E0D02132C021C0E0C0F060
:100BFC00C082C083C007C006C005C004C003C002C9
:100C0C00C001C000C0D075D0009000F7E0FEA3E09A
:100C1C00FFC007C0068E828F83120069D006D007F2
:100C2C00D0D0D000D001D002D003D004D005D00653
:100C3C00D007D083D082D0F0D0E0D02132C021C0F8
:100C4C00E0C0F0C082C083C007C006C005C004C0AD
:100C5C0003C002C001C000C0D075D0009000F3E00A
:100C6C00FEA3E04E600E9000F3E0F8A3E0F583885D
:100C7C0082120069D0D0D000D001D002D003D004B1
:100C8C00D005D006D007D083D082D0F0D0E0D021D0
:100C9C0032120FD11201821201EF80FB75820022F9
:100CAC00E582FF9013FC93FEEF9013D493FF700139
:100CBC00229000A0E0FD701BBF0209EEF4FC5292E2
:100CCC00EC529322BF0402800122EEF4FC5296EC0B
:100CDC00529722BD0214BF0207EE4292EE429322BB
:100CEC00BF0439EE4296EE429722BD0116BF0208B0
:100CFC00EEF45292EE429322BF0421EEF45296EEA1
:100D0C00429722BD0316BF0208EE4292EEF45293B4
:100D1C0022BF0408EE4296EEF4FE529722AF82BF39
:100D2C000102800FBF02028013BF03028017BF04B1
:100D3C0025801BE5C620E21E539DFB22E5C620E361
:100D4C0015539DF722E5C630E20C539DFB22E5C6F8
:100D5C0030E303539DF722E582FF9013AC93FEEF33
:100D6C009013FC93FDEF9013D493FF7003F5822244
:100D7C00EE600D8E82C007C005120D29D005D0077C
:100D8C007E00BF0202800ABF03028009BF040C80F0
:100D9C0008AE908006AEA08002AEB0ED5E60047529
:100DAC0082012275820022E582FF9013AC93FEEF44
:100DBC009013FC93FDEF9013D493FFEE600D8E8295
:100DCC00C007C005120D29D005D007A2AFE433FE31
:100DDC00C2AFBF0202800ABF03028017BF04368075
:100DEC00249000A1E07007EDF4FF52908027ED42B3
:100DFC009080229000A1E07007EDF4FF52A08015C6
:100E0C00ED42A080109000A1E07007EDF4FF52B00D
:0B0E1C008003ED42B0EE6002D2AF2276
:100E2800C0D075D00808B8000D09B900090ABA0081
:100E3800050BBB00010CD0D032A2AFC2AFA808A9E5
:100E480009AA0AAB0BAC8A8588F092AF30F5127408
:100E5800012C600D08B8000909B900050ABA00019B
:100E68000BC3EC9406FCECC313FC75F07DE8A4F806
:100E7800ADF075F07DE9A42DF9E435F0FD75F07D50
:100E8800EAA42DFAE435F0FD75F07DEBA42DFB7D89
:100E980000EC28F582E93DF583EA3DF5F0EB3D22CB
:100EA800A2AFC2AFA808A909AA0AAB0BAC0C92AFB3
:100EB80075F020E8A4A8F075F020E9A428F582A828
:100EC800F075F020EAA428F583A8F075F020EBA4CB
:100ED80028F9A8F075F020ECA42889F02285822250
:100EE80085832385F024F525120E41858226858386
:100EF8002785F028F529E522452345244525700155
:100F080022A822A923AA24AB2585262A85272B8552
:100F1800282C85292DE8494A4B60DBC003C002C054
:100F280001C000120E41AC82AD83AEF0FFD000D0FC
:100F380001D002D003ECC3952AFCED952BFDEE956C
:100F48002CFEEF952DFFC3EC94E8ED9403EE94008E
:100F5800EF940040A118B8FF0919B9FF051ABAFFA4
:100F6800011B882289238A248B2574E8252AF52ADF
:100F78007403352BF52BE4352CF52CE4352DF52DA4
:100F8800852A26852B27852C28852D298087AE82C2
:100F9800AF83C374019EE49F40022200C374029E83
:100FA800FE74009FFF00BE0005BF00020022000083
:100FB8000000000000000000000000000000000E1B
:100FC800BE00EB0FBF00ED002275A15575A1AA74F4
:100FD800F855B94406F5B975A100901388120F9613
:100FE800759E5D759D0074F055894402F58953C955
:0D0FF800EF758C06C28DD2A9D28CD2AF222B
:0110060032B7
:0110080032B5
:10100A0022AF82BF0200503EEF75F002A424F5FD24
:10101A00740035F0FE9000A2E0FBA3E0FC8D828E06
:10102A0083EBF0ECA3F0BF00028005BF0118800B30
:10103A009000A4E024FF9288D2A8229000A4E0FFA6
:10104A0024FF928AD2AA22AF82BF02005028BF0090
:10105A00028005BF01088004C2A88002C2AAEF75F7
:10106A00F002A424F5FE740035F0FF8E828F83749B
:07107A000AF07410A3F0223C
:1010820020F71430F6148883A88220F507E6A88397
:0C10920075830022E280F7E49322E02244
:10109E009000F9E0FF7E000FBF00010E7410C0E05B
:1010AE00E4C0E08F828E831211BEAE82158115814F
:1010BE009000FAE0FFEEB50701229000F9E024A5BA
:1010CE00F582E43400F583E599F09000F9EEF02214
:1010DE0030024A9000FBE0FF9000FCE0FEEFB50608
:1010EE0005A202C202229000FCE024B5F582E4348F
:1010FE0000F583E0F5999000FCE0FF7E000FBF0045
:10110E00010E7410C0E0E4C0E08F828E831211BE17
:0E111E00AE82AF83158115819000FCEEF022A9
:10112C009000FDE0FF7E000FBF00010E7410C0E0C8
:10113C00E4C0E08F828E831211BEAE8215811581C0
:10114C009000FEE0FFEEB50701229000FDE024C503
:10115C00F582E43400F583E5C1F09000FDEEF02259
:10116C0030034A9000FFE0FF900100E0FEEFB5066F
:10117C0005A203C20322900100E024D5F582E434D9
:10118C0000F583E0F5C1900100E0FF7E000FBF0089
:10119C00010E7410C0E0E4C0E08F828E831211BE89
:0E11AC00AE82AF8315811581900100EEF02216
:1011BA0075820022C015858115AE82E583FF33E46E
:1011CA0033FD6009C3E49EFBE49FFC80048E038F19
:1011DA0004E51524FCF808E630E70FE51524FCF8C9
:1011EA00C3E496FE08E496FF800AE51524FCF88617
:1011FA0006088607C005C006C0078B828C831212B8
:10120A002CAE82AF8315811581D005ED600DC3E444
:10121A009EFCE49FFD8C828D8380048E828F83D016
:10122A001522C015858115AE82AF837D007C00E54D
:10123A001524FCF808E6235401FB702FE51524FC5D
:10124A00F8E626F608E633F6E51524FCF8C3EE962A
:10125A00EF08965011E51524FCF808E618C313C6E2
:10126A0013C608F680050C8C0580C4E51524FCF825
:10127A00C3EE96EF0896400DE51524FCF8EEC396EA
:10128A00FEEF0896FFE51524FCF808E618C313C616
:10129A0013C608F68D041DEC70D18E828F83D0158B
:0112AA002221
:1012AB0000000000000000002A2B280000000000B6
:1012BB000000000000000000000000000000000023
:1012CB002C9EB4A0A1A2A434A6A7A5AE362D373868
:1012DB00271E1F20212223242526B333B62EB7B871
:1012EB009F8485868788898A8B8C8D8E8F9091922F
:1012FB00939495969798999A9B9C9D2F3130A3AD7B
:10130B00350405060708090A0B0C0D0E0F101112F8
:10131B00131415161718191A1B1C1DAFB1B0B500F5
:10132B00120110010000000809125DC50001010245
:10133B0003010902220001010080320904000001AF
:10134B00030000000921100100012215000705818F
:10135B000308000A0600FF0901A101150026FF0082
:10136B007508950809028102C004030904080330BB
:10137B0000300031001E0350004F0054002D00437D
:10138B00006F006E00740072006F006C006C0065E3
:10139B000072000E0344006500710069006E006767
:0113AB000041
:1013AC000000000000000000000000000000000130
:1013BC00000000000000000000000000000003041A
:1013CC000000020000000000010101010101010107
:1013DC0000000202020202020202000003030303E5
:1013EC0003030303000004040404040404040000C5
:1013FC0001020408102040800000010204081020A3
:10140C00408000000102040810204080000001020E
:10141C000408102040800000FFFFFFFFFFFFFFFFCC
:10142C00FFFFFF00FFFF0102FFFFFFFFFFFFFFFFBA
:10143C00FFFFFFFFFFFFFFFF03FFFFFFFFFFFFFFAC
:02144C009D0CF5
:09144E0000000000000000000095
:0314570000010091
:02145A00000090
:04145C000A100A1058
:041460000000000088
:041464000000000084
:00000001FF
